:100000009FEF01F0FFFFFFFF00C019F001C018F0E3
:100010000BC017F00CC016F00DC015F00E01CAABE6
:100020001ED03C0ED46EB00ED36ECA9B010E1A24A5
:10003000006E000E1B20016E00C01AF001C01BF004
:10004000800E1B18006E800E005C02E1C80E1A5C68
:1000500006E383787BD80E01C29B1A6A1B6A0F01E4
:100060001AA105D01A91010E206E000E216E1AA35E
:100070001FD01A93010E246E000E256E0D0E0B6E0E
:10008000AF0E0C6EB60E0D6E0D2EFED70C2EFCD7DD
:100090000B2EFAD700008FA205D01C961C80246A74
:1000A000256A06D01C861C90070E1D6E246A256AE0
:1000B0001AA505D01A95010E226E000E236E19C0E6
:1000C00000F018C001F017C00BF016C00CF015C0FE
:1000D0000DF01100300E0E01C26FCA6B900ED56E7E
:1000E000400ED66E3C0ED46EB00ED36E070E0F01CE
:1000F0001B6F070E1C6F1A6B0E01CA9B020EC66F98
:10010000CE6BC00EF26E1200080E606E0F01216BF6
:100110002E6B116B266B0F0E8A6E070E8B6E8C6A20
:10012000800E886E8F6A906A916A100E8D6E856A55
:10013000866A876A100E836E070E256F070E226F80
:10014000396B356B1C8A1C981C9C12001C901C94EB
:100150001C9E1C961F901C9210D0010E1D6E1A0E34
:100160000B6E5E0E0C6E6E0E0D6E0D2EFED70C2EEF
:10017000FCD70B2EFAD7000002D08FA2EED71200C8
:10018000A6D0839A879087921CA603D0070E1D6E77
:1001900000D0BBD0838A879087921C8C1C981C9AB5
:1001A0001CA002D01D6A00D0B0D0839A87808792AD
:1001B0001C9C1C881C9A1CA002D01D6A00D0A5D0D3
:1001C000839A879087821C9C1C981C8A1CA002D052
:1001D0001D6A00D09AD01CAC0AD01CB808D01CBA3A
:1001E00006D0838A878087921C981C9A17D01CA8F7
:1001F0000AD01CBC08D01CBA06D0839A878087829C
:100200001C9C1C9A0BD01CAA09D01CBC07D01CB883
:1002100005D0838A879087821C9C1C981CA403D0DD
:10022000070E1D6E05D01CA203D0050E1D6E00D05A
:100230006CD0838A878087821CAE03D0060E1D6E29
:1002400000D063D01CAC0AD01CB808D01CBA06D0B1
:100250001C881C9A1C9C040E1D6E18D01CA80AD069
:100260001CBC08D01CBA06D01C981C9C1C8A040E0E
:100270001D6E0CD01CAA0AD01CBC08D01CB806D01D
:100280001C8C1C981C9A040E1D6E00D03ED0266A51
:10029000276A1CAC07D01CB805D01CBA03D0020ECC
:1002A0001D6E11D01CA807D01CBC05D01CBA03D0F1
:1002B000030E1D6E08D01CAA06D01CBC04D01CB8AE
:1002C00002D0010E1D6E21D01E6A1D6A1ED01E5066
:1002D000000AD8B456D71E50010AD8B45BD71E50B6
:1002E000020AD8B462D71E50030AD8B469D71E5088
:1002F000040AD8B470D71E50050A9BE01E50060AA7
:10030000A1E01E50070AC3E0DFD71200818E09006A
:10031000F5CFE6FF0006FBE10106F9E112001A0E37
:100320000B6E5E0E0C6E6E0E0D6E0D2EFED70C2E2D
:10033000FCD70B2EFAD70000CDDEE6DE12001A6ADB
:100340001B6AEDDF1DC01EF01BDFFCD7FFD7FFFFD0
:020000040030CA
:0C0000007229C3AF1F3FFF170300FF026F
:00000001FF
