:100000004BEF00F00000000000EF00F000000000E7
:0A0010000000000000000000F3D71C
:10001C00100E0E01C26F0F011A6B1B6B1C6BC00E06
:04002C00F26E12005E
:100030008FA001D0FDD78FB00FD0020E0B6E450EF2
:100040000C6EA90E0D6E0D2EFED70C2EFCD70B2EAE
:0A005000FAD7000000001A80120029
:10005A000F0E0F01596F216B2E6B116B030E8A6EF7
:10006A008C6A886A8F6A100E8D6E916A856A876AB1
:0A007A00100E836E19821A90120016
:10008400818E0900F5CFE6FF0006FBE10106F9E1E8
:02009400120058
:10009600E1DFC1DF1980C9DF820E0C6EDD0E0D6E49
:1000A6000D2EFED70C2EFCD7000000001AA04BD058
:1000B6008FB049D0800E2618006E800E1818005C8E
:1000C60008E11750255C05E11650245C02E1155045
:1000D600235C0EE28780010E23241F6E000E24206F
:1000E600206E000E2520216E000E2620226E1DD0C9
:1000F600800E1818006E800E2618005C08E1255048
:10010600175C05E12450165C02E12350155C0DE2F4
:10011600838A010E15241B6E000E16201C6E000E1F
:1001260017201D6E000E18201E6E18501E1808E1AE
:1001360017501D1805E116501C1802E115501B1822
:10014600D8B483781AD0839A87901BC015F01CC048
:1001560016F01DC017F01EC018F01FC023F020C0F7
:1001660024F021C025F022C026F01B6A1C6A1D6AF5
:0E0176001E6A1F6A206A216A226A8DD7FFD78F
:020000040030CA
:0C0000007729E3BF7F3FFF170300FF02DA
:00000001FF
