:100000002EEF00F00000000000EF00F00000000004
:0A0010000000000000000000F3D71C
:10001C000F0E0F01596F216B2E6B116B030E8A6E35
:10002C008C6A886A8F6A916A100E8D6E856A876AEF
:08003C00100E836E16901200F5
:060044008FB016801200CF
:10004A00818E0900F5CFE6FF0006FBE10106F9E122
:02005A00120092
:10005C00156ADEDFF1DF16B0918091B0152A1550CC
:10006C0005081FE38D98030E0B6E8A0E0C6E550E51
:10007C000D6E0D2EFED70C2EFCD70B2EFAD70000D2
:10008C0000008D88030E0B6E8A0E0C6E550E0D6ED5
:10009C000D2EFED70C2EFCD70B2EFAD7000000002D
:0600AC0001D08D98FFD782
:020000040030CA
:0C0000007729E3BF7F3FFF170300FF02DA
:00000001FF
