:0400000052EF00F0CB
:1000080000C015F00E01CA998FCF17F0000E186EB8
:10001800070E006E005005E018321732189EFF0FC9
:0A002800FAD78D8A15C000F0110010
:100032000E01C289CA990F011C911A91F28E120007
:10004200016A040E015C0FE28D78030E0B6E080E3E
:100052000C6E770E0D6E0D2EFED70C2EFCD70B2ECE
:08006200FAD7012AEED71200C3
:10006A000F0E0F01596F216B2E6B116B030E8A6EE7
:10007A008C6A886A8F6A916A100E8D6E856A876AA1
:08008A00100E836E16801200B7
:10009200818E0900F5CFE6FF0006FBE10106F9E1DA
:0200A20012004A
:1000A400E2DFC5DFCCDF410E0C6EEE0E0D6E0D2EC1
:0C00B400FED70C2EFCD70000F6D7FFD7BB
:020000040030CA
:0C0000007729E3BF7F3FFF170300FF02DA
:00000001FF
