:100000000EEF00F00000000000EF00F00000000024
:0A0010000000000000000000F3D71C
:10001C000F01116B216B2E6B030E8A6E8C6A886A32
:10002C008D6A916A8F6A856A876A836A010E166E79
:10003C00176AFF0E175C05E31580010E166E176A22
:10004C0001D015908FB003D015828D8801D01592F8
:10005C00030E0B6E8A0E0C6E550E0D6E0D2EFED70A
:10006C000C2EFCD70B2EFAD70000000015A212D0D4
:10007C00020E876E172A030E0B6E8A0E0C6E550E2F
:10008C000D6E0D2EFED70C2EFCD70B2EFAD70000C2
:10009C00000019D015A215D01750165C12E2010EF3
:1000AC00876E162A030E0B6E8A0E0C6E550E0D6E95
:1000BC000D2EFED70C2EFCD70B2EFAD7000000000D
:0A00CC0002D0876A8D88D2D7FFD7D3
:020000040030CA
:0C0000007729E3BF7F3FFF170300FF02DA
:00000001FF
