:1000000017EF00F00000000000EF00F0000000001B
:0A0010000000000000000000F3D71C
:10001C00818E0900F5CFE6FF0006FBE10106F9E150
:02002C001200C0
:10002E00156A166A010E176E186A0F0E0F01596FB8
:10003E00216B2E6B116B030E8A6E8C6A886A8F6A27
:10004E00916A8D6A856A876A836A176A186A156A61
:10005E00166A8FB002D0198002D08FB019908FB26D
:10006E0002D0198202D08FB21992030E0B6E8A0E35
:10007E000C6E550E0D6E0D2EFED70C2EFCD70B2EC4
:10008E00FAD7000000008FB003D0010E006E01D031
:10009E00006A00B002D0199001D0198019A055D075
:1000AE001850165C02E11750155C14E2020E876EB2
:1000BE00154A162A1990030E0B6E8A0E0C6E550EEB
:1000CE000D6E0D2EFED70C2EFCD70B2EFAD7000080
:1000DE00000014D0010E876E174A182A8D881990C9
:1000EE00030E0B6E8A0E0C6E550E0D6E0D2EFED778
:1000FE000C2EFCD70B2EFAD7000000008FB203D0C7
:10010E00010E006E01D0006A00B002D0199201D02B
:10011E00198219A207D0030E876E174A182A154A9C
:10012E00162A12D0199219A20FD01850165C02E19D
:10013E001750155C05E2020E876E154A162A04D07A
:10014E00010E876E174A182A05D0199019A002D0F1
:08015E00876A19907ED7FFD7D4
:020000040030CA
:0C0000007729E3BF7F3FFF170300FF02DA
:00000001FF
