:0400000044EF00F0D9
:1000080000C015F00E01CAAB21D03B0ED36EF60E20
:10001800D46E010E1626000E1722182219228FA060
:1000280014D0800E1918006E800E005C08E1000ED6
:10003800185C05E1000E175C02E1640E165CD8B08E
:10004800837A166A176A186A196ACA9B15C000F07B
:02005800110095
:10005A00C00EF26E900ED56E460ED66E200E0E01B2
:0C006A00C26F3B0ED36EF60ED46E120077
:10007600818E0900F5CFE6FF0006FBE10106F9E1F6
:02008600120066
:10008800166A176A186A196A0F01216B2E6B116BB1
:10009800030E8A6E8C6A886A010E8F6E100E8D6E42
:1000A800916A010E856E876A100E836ED2DFFFD7C4
:020000040030CA
:0C0000000429E3BF7F3FFF170300FF024D
:00000001FF
