:0400000076EF00F0A7
:100008000E01CAAB1DD0FF0ED46EF70ED36E83AAB5
:100018000AD022A208D08398010E1526000E1622B7
:1000280017221822229287A00AD022A208D08398E9
:10003800010E1926000E1A221B221C222292CA9B8C
:020048001100A5
:10004A00100E0E01C26F0F011A6B1B6B1C6B900E08
:10005A00D56E460ED66EFF0ED46EF70ED36EC00E58
:08006A00F26E0E01C28B1200C0
:0C0072008FA001D0FDD78FA021801200CC
:10007E00800E1818006E800E1C18005C08E11B50D4
:10008E00175C05E11A50165C02E11950155C02E28C
:0A009E00236A02D0010E236E120047
:1000A800818E0900F5CFE6FF0006FBE10106F9E1C4
:0200B800120034
:1000BA000F0E0F01596F216B2E6B116B030E8A6E97
:1000CA008C6A886A010E8F6E100E8D6E916A010E0F
:1000DA00856E876A100E836E228022822190219279
:0200EA00120002
:1000EC00156A166A176A186A196A1A6A1B6A1C6AF0
:1000FC001D6A1E6A1F6A206ADADFA1DF156A166A9A
:10010C00176A186A196A1A6A1B6A1C6A800E201808
:10011C00006E800E005C08E1000E1F5C05E1000E15
:10012C001E5C02E1500E1D5CD8B087709CDF21A0D4
:10013C000DD09FDF04D0837A08D0877006D023506F
:10014C00000AF9E02350010AF8E004D0839A879062
:08015C0087928794EBD7FFD7CF
:020000040030CA
:0C0000007729E3BF7F3FFF170300FF02DA
:00000001FF
