:1000000028EF01F0FFFFFFFF0F011AA106D00E013C
:10001000C2A903D00F011A9116880F011AA306D0A6
:100020000E01C2A903D00F011A93168E11000F0EF4
:100030000F01596F216B2E6B116B030E8A6E8C6A48
:10004000800E886E8F6A916A100E8D6E856A876A3F
:10005000100E836E030E206F030E1D6F396B356B10
:10006000120016A809D08FA003D01696168A02D0C7
:100070001686169A16980DD016AE09D08FA203D008
:10008000169C168002D0168C1690169E02D01698DA
:10009000169E1200AAD0839A87908792169216A66F
:1000A00005D016A403D0060E176E01D0176AB7D07C
:1000B000838A8790879218801892189416AA04D081
:1000C00016A402D0176A09D016AC05D016A403D026
:1000D000040E176E02D0010E176EA1D0839A87808E
:1000E000879218901882189416AA04D016A402D0E9
:1000F000176A09D016AC05D016A403D0040E176EEB
:1001000002D0020E176E8BD0839A87908782189048
:100110001892188416AA04D016A402D0176A09D01F
:1001200016AC05D016A403D0040E176E02D0030E31
:10013000176E75D0838A8780878216AA04D016A48A
:1001400002D0176A0AD016A006D016A404D0050E55
:10015000176E168202D0040E176E61D016A207D059
:1001600018A005D016A403D0020E176E14D016A244
:1001700007D018A205D016A403D0030E176E0BD01B
:1001800016A207D018A405D016A403D0010E176E2E
:1001900002D0050E176E43D016A61DD018A007D0AA
:1001A00016A405D0020E176E1892189414D018A237
:1001B00007D016A405D0030E176E189018940BD014
:1001C00018A407D016A405D0010E176E1890189227
:1001D00002D0060E176E23D0189018921884839AB6
:1001E00087908792156A176A1AD01550000AD8B4FA
:1001F00052D71550010AD8B45BD71550020AD8B4AB
:100200006DD71550030AD8B47FD71550040A92E071
:100210001550050AA3E01550060ABEE0DDD712000E
:10022000818E0900F5CFE6FF0006FBE10106F9E14A
:100230001200300E0E01C26FCA6B030E0F011B6F4E
:10024000030E1C6F1A6B0E01CA9BC00EF26E1200D9
:10025000F0DFEDDE06DF0F011AB1FCD71AB3FAD7D3
:10026000168417C015F016DFFBD7FFD7FFFFFFFF7F
:020000040030CA
:0C0000007229C3AF7F3FFF170300FF020F
:00000001FF
