:1000000086EF02F0FFFFFFFF00C015F00F011AA1FD
:100010000AD00E01C2A907D00F011A91010E2E6E4F
:10002000000E2F6E60D80F011AA30AD00E01C2A9CC
:1000300007D00F011A93010E306E000E316E53D8A7
:100040000F011AA50AD00E01C2A907D00F011A95F7
:10005000010E326E000E336E46D815C000F011004E
:100060008792120087901200839A120087801200F4
:1000700087821200838A1200080E606E0F01216BC6
:100080002E6B116B266B0F0E8A6E070E8B6E8C6AB1
:10009000800E886E8F6A906A916A100E8D6E856AE6
:1000A000866A876A100E836E070E256F070E226F11
:1000B000396B356B1200300E0E01C26FCA6B070E22
:1000C0000F011B6F070E1C6F1A6B0E01CA9BC00E2F
:1000D000F26E1200818E0900F5CFE6FF0006FBE10B
:1000E0000106F9E11200000E2F1802E12E50010A5C
:1000F00012E18FA007D02A6A2B6A010E1A6E000E39
:100100001B6E06D0010E2A6E000E2B6E1A6A1B6A39
:100110002E6A2F6A36D0000E311802E13050010AE3
:1001200012E18FA207D0186A196A010E206E000E24
:10013000216E06D0010E186E000E196E206A216A1B
:10014000306A316A1ED0000E331802E13250010AC3
:1001500012E18FA407D01E6A1F6A010E1C6E000EEA
:100160001D6E06D0010E1E6E000E1F6E1C6A1D6AEB
:10017000326A336A06D02E6A2F6A306A316A326A6E
:10018000336A1200010E266E000E276E9BD16CDFC3
:1001900069DF66DF2C6A2D6A000E2B1802E12A50F7
:1001A000010A09E1000E271802E12650010A03E1C5
:1001B000070E256E00D0A6D15DDF54DF51DF010EA2
:1001C000286E000E296E226A236A166A176A000ECC
:1001D0001B1802E11A50010A08E1000E271802E17B
:1001E0002650010A02E1256A0FD0000E191802E11B
:1001F0001850010A09E1000E271802E12650010AF1
:1002000003E1040E256E00D07DD12EDF2FDF28DF25
:10021000286A296A010E226E000E236E166A176A7A
:10022000000E1B1802E11A50010A08E1000E2718FF
:1002300002E12650010A02E1256A0FD0000E1918CA
:1002400002E11850010A09E1000E271802E12650C8
:10025000010A03E1040E256E00D054D105DF02DF50
:1002600007DF286A296A226A236A010E166E000EC9
:10027000176E000E1B1802E11A50010A08E1000E69
:10028000271802E12650010A02E1256A0FD0000E6C
:10029000191802E11850010A09E1000E271802E1BD
:1002A0002650010A03E1040E256E00D02BD1000E6A
:1002B000291802E12850010A10E1000E231802E17A
:1002C0002250000A0AE1000E171802E11650000A37
:1002D00004E1D0DECBDEC4DE2BD0000E231802E119
:1002E0002250010A10E1000E291802E12850000AEC
:1002F0000AE1000E171802E11650000A04E1B4DE0C
:10030000B5DEB6DE15D0000E171802E11650010A50
:100310000FE1000E291802E12850000A09E1000E41
:10032000231802E12250000A03E1A4DE9BDEA0DED6
:10033000000E211802E12050010A09E1000E2718E1
:1003400002E12650010A03E1070E256E0FD0000ED0
:100350001F1802E11E50010A09E1000E271802E1F0
:100360002650010A03E1050E256E00D0CBD082DEB7
:100370007DDE7EDE000E1D1802E11C50010A0DE13B
:10038000000E271802E12650010A07E1010E2C6E2B
:10039000000E2D6E060E256E00D0B4D0000E2D1866
:1003A00002E12C50010A17E1000E291802E1285041
:1003B000010A11E1000E271802E12650010A0BE1A3
:1003C000010E226E000E236E166A176A286A296AC9
:1003D000040E256E3AD0000E2D1802E12C50010AB1
:1003E00017E1000E231802E12250010A11E1000E6C
:1003F000271802E12650010A0BE1226A236A286AC3
:10040000296A010E166E000E176E040E256E1DD0A1
:10041000000E2D1802E12C50010A17E1000E1718EA
:1004200002E11650010A11E1000E271802E12650E0
:10043000010A0BE1010E286E000E296E226A236A62
:10044000166A176A040E256E00D05CD0000E2918BB
:1004500002E12850010A09E1000E271802E12650A6
:10046000010A03E1020E256E1ED0000E231802E1E0
:100470002250010A09E1000E271802E12650010A64
:1004800003E1030E256E0FD0000E171802E116507F
:10049000010A09E1000E271802E12650010A03E1D2
:1004A000010E256E00D02ED0286A296A226A236A9E
:1004B000010E166E000E176E839A87908792246A3B
:1004C000256A20D02450000AD8B461D62450010AED
:1004D000D8B472D62450020AD8B497D62450030A4E
:1004E000D8B4BCD62450040AD8B4E1D62450050AA6
:1004F000D8B43DD72450060AD8B450D72450070AA0
:10050000A5E0D2D71200B8DDD6DD1200010E166EBE
:10051000176AF9DF25C024F035DEFCD7FFD7FFFFCF
:020000040030CA
:0C0000007229C3AF1F3FFF170300FF026F
:00000001FF
