:1000000016EF02F0FFFFFFFF00C019F001C018F06B
:100010000BC017F00CC016F00DC015F00E01CAABE6
:100020001CD03C0ED46EB00ED36ECA9B010E1A24A7
:10003000006E000E1B20016E00C01AF001C01BF004
:10004000800E1B18006E800E005C02E1640E1A5CCC
:1000500004E3837879D81A6A1B6A0F011AA10AD0BF
:100060000E01C2A907D00F011A91010E236E000ED6
:10007000246E6AD80F011AA30AD00E01C2A907D0B4
:100080000F011A93010E256E000E266E5DD80F012A
:100090001AA50AD00E01C2A907D00F011A95010EA8
:1000A000276E000E286E50D819C000F018C001F05D
:1000B00017C00BF016C00CF015C00DF01100300E7B
:1000C0000E01C26FCA6B900ED56E400ED66E3C0EFE
:1000D000D46EB00ED36E070E0F011B6F070E1C6F90
:1000E0001A6B0E01CA9BC00EF26E1200080E606EF3
:1000F0000F01216B2E6B116B266B0F0E8A6E070E94
:100100008B6E8C6A800E886E8F6A906A916A100E70
:100110008D6E856A866A876A100E836E070E256F5C
:10012000070E226F396B356B1C88060E0B6E130E93
:100130000C6EAD0E0D6E0D2EFED70C2EFCD70B2EB9
:10014000FAD7000000001200030E0B6E8A0E0C6E30
:10015000550E0D6E0D2EFED70C2EFCD70B2EFAD79A
:10016000000000008FA005D01C961C82236A246A20
:1001700004D01C861C92236A246A8FA205D01C9E80
:100180002980256A266A06D01C8E2990040E1D6ED1
:10019000256A266A8FA405D01C9C1C8A276A286AB7
:1001A00006D01C8C1C9A050E1D6E276A286A120048
:1001B000010E1E6E000E1F6E0DD1839A87908792DE
:1001C000206A216A1CA609D0000E1F1802E11E50E9
:1001D000010A03E1070E1D6E00D01BD1838A8790B0
:1001E00087921C801C941C981CA208D0000E1F181B
:1001F00002E11E50010A02E11D6A0BD01CAE09D0BB
:10020000000E1F1802E11E50010A03E1040E1D6ECC
:1002100000D0FFD0839A878087921C901C841C9802
:100220001CA208D0000E1F1802E11E50010A02E1B4
:100230001D6A0BD01CAE09D0000E1F1802E11E5023
:10024000010A03E1040E1D6E00D0E3D0839A87906B
:1002500087821C901C941C881CA208D0000E1F18BA
:1002600002E11E50010A02E11D6A0BD01CAE09D04A
:10027000000E1F1802E11E50010A03E1040E1D6E5C
:1002800000D0C7D01CA008D01CB406D01CB804D025
:10029000838A8780879213D01CA408D01CB006D014
:1002A0001CB804D0839A8780878209D01CA807D005
:1002B0001CB005D01CB403D0838A8790878229A004
:1002C00009D0000E1F1802E11E50010A03E1070EBB
:1002D0001D6E0BD01CAC09D0000E1F1802E11E5081
:1002E000010A03E1050E1D6E00D093D0838A87803A
:1002F00087821CAA0DD0000E1F1802E11E50010AB1
:1003000007E1010E206E000E216E060E1D6E00D05C
:1003100080D0000E211802E12050010A0EE11CA03D
:100320000CD0000E1F1802E11E50010A06E11C84C9
:100330001C981C90040E1D6E28D0000E211802E19E
:100340002050010A0EE11CA40CD0000E1F1802E17F
:100350001E50010A06E11C941C901C88040E1D6EA0
:1003600014D0000E211802E12050010A0EE11CA851
:100370000CD0000E1F1802E11E50010A06E11C807D
:100380001C941C98040E1D6E00D043D01CA007D0F6
:100390001CB405D01CB803D0020E1D6E11D01CA4D5
:1003A00007D01CB005D01CB803D0030E1D6E08D0BA
:1003B0001CA806D01CB004D01CB402D0010E1D6EC7
:1003C00028D01C901C941C88839A87908792226A5C
:1003D0001D6A1FD02250000AD8B4EFD62250010A5D
:1003E000D8B4FCD62250020AD8B414D72250030A3B
:1003F000D8B42CD72250040AD8B444D72250050AC6
:10040000D8B474D72250060A84E02250070ABEE00E
:10041000D8D71200818E0900F5CFE6FF0006FBE178
:100420000106F9E112004BDE61DE12001A6A1B6A56
:10043000FADF1DC022F0BCDEFCD7FFD7FFFFFFFFB5
:020000040030CA
:0C0000007229C3AF1F3FFF170300FF026F
:00000001FF
