:1000000067EF01F0FFFFFFFF0F011AA106D00E01FD
:10001000C2A903D00F011A91168A0F011AA306D0A4
:100020000E01C2A903D00F011A9316880F011AA559
:1000300007D00E01C2A904D00F011A95168E83783D
:100040001100080E606E0F01216B2E6B116B266B79
:100050000F0E8A6E070E8B6E8C6A800E886E8F6A0A
:10006000906A916A100E8D6E856A866A876A100E94
:10007000836E0F0E206F0F0E1D6F070E256F070E7C
:10008000226F396B356B120016AA09D08FA003D0EE
:100090001898168C02D01888169C169A19D016A893
:1000A00009D08FA203D01892188002D0188218901D
:1000B00016980ED016AE09D08FA403D016921680D3
:1000C00002D016821690169E03D0169A1698169E87
:1000D0001200C6D0839A87908792169618A805D0EA
:1000E00016A403D0070E176E01D0176AD7D0838AE3
:1000F00087908792188A1894189616AC04D016A484
:1001000002D0176A09D018A205D016A403D0040E95
:10011000176E02D0010E176EC1D0839A8780879226
:10012000189A1884189616AC04D016A402D0176A30
:1001300009D018A205D016A403D0040E176E02D061
:10014000020E176EABD0839A87908782189A189404
:10015000188616AC04D016A402D0176A09D018A2CB
:1001600005D016A403D0040E176E02D0030E176E2E
:1001700095D0838A878016AC04D016A402D0176A63
:1001800011D018A006D016A404D0060E176E16863D
:1001900009D016A205D016A403D0050E176E02D002
:1001A000040E176E7BD0838A8780878216BC03D0AB
:1001B00018B001D004D016A402D0176A09D016A036
:1001C00005D016A403D0040E176E02D0050E176ECC
:1001D00065D016A607D018AA05D016A403D0020E23
:1001E000176E14D016A607D018A405D016A403D0F5
:1001F000030E176E0BD016A607D018A605D016A4AE
:1002000003D0010E176E02D0050E176E47D018A846
:100210001DD018AA07D016A405D0020E176E189488
:10022000189614D018A407D016A405D0030E176E84
:10023000189A18960BD018A607D016A405D0010E50
:10024000176E189A189402D0070E176E27D0189AB6
:1002500018941886839A87908792156A176A1ED019
:100260001550000AD8B436D71550010AD8B43FD774
:100270001550020AD8B451D71550030AD8B463D721
:100280001550040AD8B475D71550050A8CE01550DE
:10029000060A9FE01550070ABAE0D9D71200818EEE
:1002A0000900F5CFE6FF0006FBE10106F9E11200C7
:1002B000300E0E01C26FCA6B070E0F011B6F070EC7
:1002C0001C6F1A6B0E01CA9BC00EF26E1200F0DF9B
:1002D000B8DEDADE0F011AB1FCD71AB3FAD71AB5B5
:1002E000F8D7168417C015F0F4DEFBD7FFD7FFFF51
:020000040030CA
:0C0000007229C3AF7F3FFF170300FF020F
:00000001FF
