:100000006AEF02F0FFFFFFFF00C019F001C018F017
:100010000BC017F00CC016F00DC015F00E01CAABE6
:100020001CD03C0ED46EB00ED36ECA9B010E1C24A5
:10003000006E000E1D20016E00C01CF001C01DF0FE
:10004000800E1D18006E800E005C02E1C80E1C5C64
:1000500004E38378C29B1C6A1D6ACEA11CD0EC0EFF
:10006000CE6E780ECD6ECE91010E1A24006E000E6B
:100070001B20016E00C01AF001C01BF0800E1B187F
:10008000006E800E030A005C02E1E80E1A5C03E3D6
:1000900087741A6A1B6A0F011AA135D01A91010ED2
:1000A000236E000E246E030E0B6E8A0E0C6E550E20
:1000B0000D6E0D2EFED70C2EFCD70B2EFAD700009E
:1000C00000008FA005D01E9E1E86236A246A1BD0C6
:1000D0001E8E1E96070E1F6E236A246A8FB20AD0E8
:1000E000040E1F6E8FB403D0050E1F6E02D0040ED7
:1000F0001F6E09D0070E1F6E8FB403D0050E1F6E42
:1001000002D0070E1F6E0F011AA327D01A93010EFB
:10011000276E000E286E030E0B6E8A0E0C6E550EA7
:100120000D6E0D2EFED70C2EFCD70B2EFAD700002D
:1001300000008FA205D01E9C1E88276A286A0DD059
:100140001E8C1E98040E1F6E276A286A8FB403D077
:10015000050E1F6E02D0040E1F6E0F011AA520D0CF
:100160001A95010E256E000E266E030E0B6E8A0E7A
:100170000C6E550E0D6E0D2EFED70C2EFCD70B2ED1
:10018000FAD7000000008FA405D01E942980256AAC
:10019000266A06D01E842990050E1F6E256A266ADF
:1001A00019C000F018C001F017C00BF016C00CF019
:1001B00015C00DF01100080E606E0F01216B2E6B43
:1001C000116B266B0F0E8A6E070E8B6E8C6A800E7B
:1001D000886E8F6A906A916A100E8D6E070E856E1A
:1001E000866A876A100E836E070E256F070E226FD0
:1001F000396B356B1E8A1E901E921200300E0E0156
:10020000C26FCA6B900ED56E400ED66E3C0ED46E89
:10021000B00ED36E070E0F011B6F070E1C6F1A6B0B
:100220000E01CA9B020EC66FCE6B030ECF6ED06A54
:10023000010ED26E780ECD6EEC0ECE6EC00EF26E4A
:1002400012001E961E9829901E9E1E9C1E9441D040
:10025000010E1F6E1AD0040E1F6E06D0050E1F6E03
:1002600007D0040E1F6E04D08FA4F8D78FB4F9D72F
:1002700010D006D0050E1F6E07D0010E1F6E04D0E1
:100280008FA4F8D78FB4F9D704D08FA2E4D78FB258
:10029000F0D723D019D0040E1F6E06D0050E1F6EA6
:1002A00007D0040E1F6E04D08FA4F8D78FB4F9D7EF
:1002B0000FD005D0050E1F6E06D01F6A04D08FA484
:1002C000F9D78FB4FAD704D08FA2E5D78FB2F1D780
:1002D00004D08FA0BDD78FB0DDD71200B5D0839AE0
:1002E000879087921EAE03D0070E1F6E00D0CAD033
:1002F000838A879087921E821E901E9A1EA602D025
:100300001F6A05D01EAC03D0040E1F6E00D0BAD0F9
:10031000839A878087921E921E801E9A1EA602D004
:100320001F6A05D01EAC03D0040E1F6E00D0AAD0E9
:10033000839A879087821E921E901E8A1EA602D0E4
:100340001F6A05D01EAC03D0040E1F6E00D09AD0D9
:100350001EA20AD01EB008D01EBA06D0838A87809B
:1003600087921E901E9A17D01EA00AD01EB208D0E7
:100370001EBA06D0839A878087821E921E9A0BD05F
:100380001EAA09D01EB207D01EB005D0838A87905E
:1003900087821E921E901EA803D0070E1F6E05D0E6
:1003A0001EA403D0050E1F6E00D06CD0838A8780F8
:1003B000878229A003D0060E1F6E00D063D01EA234
:1003C0000AD01EB008D01EBA06D01E801E9A1E92F9
:1003D000040E1F6E18D01EA00AD01EB208D01EBA7E
:1003E00006D01E901E921E8A040E1F6E0CD01EAAEE
:1003F0000AD01EB208D01EB006D01E821E901E9AD1
:10040000040E1F6E00D03ED0216A226A1EA207D0C1
:100410001EB005D01EBA03D0020E1F6E11D01EA052
:1004200007D01EB205D01EBA03D0030E1F6E08D02F
:100430001EAA06D01EB204D01EB002D0010E1F6E3E
:1004400021D0206A1F6A1ED02050000AD8B447D796
:100450002050010AD8B44CD72050020AD8B458D73B
:100460002050030AD8B464D72050040AD8B470D7F7
:100470002050050A9BE02050060AA1E02050070A00
:10048000C3E0DFD71200818E0900F5CFE6FF00063A
:10049000FBE10106F9E112001A0E0B6E5E0E0C6E06
:1004A0006E0E0D6E0D2EFED70C2EFCD70B2EFAD72E
:1004B0000000A4DE80DE1A0E0B6E5E0E0C6E6E0E59
:1004C0000D6E0D2EFED70C2EFCD70B2EFAD700008A
:1004D000B8DE12001A6A1B6A1C6A1D6ADDDF1FC0C3
:1004E00020F0FCDEFCD7FFD7FFFFFFFFFFFFFFFF81
:020000040030CA
:0C0000007229C3AF1F3FFF170300FF026F
:00000001FF
