:1000000003EF02F0FFFFFFFF00C018F00BC017F076
:100010000CC016F00DC015F00F011AA10AD00E0188
:10002000C2A907D00F011A91010E226E000E236E95
:1000300052D80F011AA30AD00E01C2A907D00F018E
:100040001A93010E246E000E256E45D80F011AA5D5
:100050000AD00E01C2A907D00F011A95010E206E19
:10006000000E216E38D818C000F017C00BF016C073
:100070000CF015C00DF01100300E0E01C26FCA6BEE
:10008000070E0F011B6F070E1C6F1A6B0E01CA9B28
:10009000C00EF26E1200080E606E0F01216B2E6B07
:1000A000116B266B0F0E8A6E070E8B6E8C6A800E9C
:1000B000886E8F6A906A916A100E8D6E856A866A64
:1000C000876A100E836E070E256F070E226F396B3D
:1000D000356B198A1200030E0B6E8A0E0C6E550ECC
:1000E0000D6E0D2EFED70C2EFCD70B2EFAD700006E
:1000F0000000000E231802E12250010A0AE18FA03D
:1001000003D0199C198402D0198C1994226A236A8D
:100110002DD0000E251802E12450010A0CE18FA217
:1001200003D01998198604D019881996040E1A6EEE
:10013000246A256A1BD0000E211802E12050010A12
:1001400003E08FA401D00CD08FA403D02690198E89
:1001500004D02680199E050E1A6E206A216A06D0E8
:10016000226A236A246A256A206A216A1200010E23
:100170001B6E000E1C6E0DD1839A879087921E6AAB
:100180001F6A19AC09D0000E1C1802E11B50010AAD
:1001900003E1070E1A6E00D01BD1838A87908792E5
:1001A00019821990199A19A408D0000E1C1802E19E
:1001B0001B50010A02E11A6A0BD019A809D0000EDF
:1001C0001C1802E11B50010A03E1040E1A6E00D054
:1001D000FFD0839A8780879219921980199A19A45F
:1001E00008D0000E1C1802E11B50010A02E11A6A35
:1001F0000BD019A809D0000E1C1802E11B50010AEF
:1002000003E1040E1A6E00D0E3D0839A87908782B0
:1002100019921990198A19A408D0000E1C1802E12D
:100220001B50010A02E11A6A0BD019A809D0000E6E
:100230001C1802E11B50010A03E1040E1A6E00D0E3
:10024000C7D019A208D019B006D019BA04D0838A31
:100250008780879213D019A008D019B206D019BA96
:1002600004D0839A8780878209D019AA07D019B24F
:1002700005D019B003D0838A8790878219A609D048
:10028000000E1C1802E11B50010A03E1070E1A6E52
:100290000BD026A009D0000E1C1802E11B50010A49
:1002A00003E1050E1A6E00D093D0838A878087827F
:1002B00019AE0DD0000E1C1802E11B50010A07E117
:1002C000010E1E6E000E1F6E060E1A6E00D080D03C
:1002D000000E1F1802E11E50010A0EE119A20CD0F7
:1002E000000E1C1802E11B50010A06E11980199A40
:1002F0001992040E1A6E28D0000E1F1802E11E502B
:10030000010A0EE119A00CD0000E1C1802E11B50CE
:10031000010A06E119901992198A040E1A6E14D076
:10032000000E1F1802E11E50010A0EE119AA0CD09E
:10033000000E1C1802E11B50010A06E119821990F7
:10034000199A040E1A6E00D043D019A207D019B022
:1003500005D019BA03D0020E1A6E11D019A007D019
:1003600019B205D019BA03D0030E1A6E08D019AA13
:1003700006D019B204D019B002D0010E1A6E28D0DE
:1003800019921990198A839A879087921D6A1A6A1E
:100390001FD01D50000AD8B4EFD61D50010AD8B4A2
:1003A000FCD61D50020AD8B414D71D50030AD8B485
:1003B0002CD71D50040AD8B444D71D50050AD8B410
:1003C00074D71D50060A84E01D50070ABEE0D8D736
:1003D0001200818E0900F5CFE6FF0006FBE1010661
:1003E000F9E1120049DE57DE030E0B6E8A0E0C6E29
:1003F000550E0D6E0D2EFED70C2EFCD70B2EFAD7F8
:10040000000000001200EEDF1AC01DF0B0DEFCD7C5
:10041000FFD7FFFFFFFFFFFFFFFFFFFFFFFFFFFF14
:020000040030CA
:0C0000007229C3AF1F3FFF170300FF026F
:00000001FF
