:1000000097EF02F0FFFFFFFF00C019F001C018F0EA
:100010000BC017F00CC016F00DC015F00E01CAABE6
:100020001ED03C0ED46EB00ED36ECA9B010E20249F
:10003000006E000E2120016E00C020F001C021F0F2
:10004000800E2118006E800E005C02E1C80E205C5C
:1000500006E383780FD90E01C29B206A216ACEA1E4
:100060001CD0EC0ECE6E780ECD6ECE91010E2424F7
:10007000006E000E2520016E00C024F001C025F0A6
:10008000800E2518006E800E030A005C02E1E80E67
:10009000245C03E38774246A256A0F011AA137D010
:1000A0001A91010E286E000E296E030E0B6E8A0E39
:1000B0000C6E550E0D6E0D2EFED70C2EFCD70B2E92
:1000C000FAD7000000008FA005D02C9C2C8A286A4B
:1000D000296A1DD0010E1C6E000E1D6E2C8C2C9AF0
:1000E0002B6A286A296A8FB20AD0040E2B6E8FB44D
:1000F00003D0050E2B6E02D0040E2B6E08D0070E17
:100100002B6E8FB403D0050E2B6E01D02B6A0F011E
:100110001AA32DD01A93010E266E000E276E030E21
:100120000B6E8A0E0C6E550E0D6E0D2EFED70C2E1C
:10013000FCD70B2EFAD7000000008FA20BD02C9218
:100140002F80266A276A8FB004D0010E1C6E000E25
:100150001D6E0DD02C822F90040E2B6E266A276AFE
:100160008FB403D0050E2B6E02D0040E2B6E0F0140
:100170001AA530D01A95010E226E000E236E030EC2
:100180000B6E8A0E0C6E550E0D6E0D2EFED70C2EBC
:10019000FCD70B2EFAD7000000008FA415D02C90AE
:1001A0002C8E226A236A8FB008D0010E1C6E000EBE
:1001B0001D6E010E1E6E000E1F6E8FB204D0010E5A
:1001C0001A6E000E1B6E06D02C802C9E050E2B6E18
:1001D000226A236A19C000F018C001F017C00BF0A2
:1001E00016C00CF015C00DF01100080E606E0F0166
:1001F000216B2E6B116B266B0F0E8A6E070E8B6EAA
:100200008C6A800E886E8F6A906A916A100E8D6E6D
:10021000856A866A876A100E836E070E256F070E41
:10022000226F396B356B2C882C962C941200300E73
:100230000E01C26FCA6B900ED56E400ED66E3C0E8C
:10024000D46EB00ED36E070E0F011B6F070E1C6F1E
:100250001A6B0E01CA9B020EC66FCE6B030ECF6ED9
:10026000D06A010ED26E780ECD6EEC0ECE6EC00E40
:10027000F26E12002C9A2F902C9E2C9C2C922C907B
:1002800041D0010E2B6E1AD0040E2B6E06D0050E37
:100290002B6E07D0040E2B6E04D08FA4F8D78FB42A
:1002A000F9D710D006D0050E2B6E07D0010E2B6E9D
:1002B00004D08FA4F8D78FB4F9D704D08FA2E4D795
:1002C0008FB2F0D723D019D0040E2B6E06D0050EB6
:1002D0002B6E07D0040E2B6E04D08FA4F8D78FB4EA
:1002E000F9D70FD005D0050E2B6E06D02B6A04D09F
:1002F0008FA4F9D78FB4FAD704D08FA2E5D78FB2E5
:10030000F1D704D08FA0BDD78FB0DDD71200C9D0F0
:10031000839A879087922CAC03D0070E2B6E00D067
:10032000DED0838A879087922C842C962C982CAAD6
:1003300002D02B6A05D02CA203D0040E2B6E00D065
:10034000CED0839A878087922C942C862C982CAAC6
:1003500002D02B6A05D02CA203D0040E2B6E00D045
:10036000BED0839A879087822C942C962C882CAAB6
:1003700002D02B6A05D02CA203D0040E2B6E00D025
:10038000AED0010E1A6E000E1B6E2CA40AD02CB635
:1003900008D02CB806D0838A878087922C962C9818
:1003A00017D02CA60AD02CB408D02CB806D0839A2B
:1003B000878087822C942C980BD02CA809D02CB441
:1003C00007D02CB605D0838A879087822C942C96F0
:1003D0002FA003D0070E2B6E05D02CA003D0050E46
:1003E0002B6E00D07CD0838A878087822CAE03D08E
:1003F000060E2B6E00D073D01A501B1025E02CA4D3
:100400000AD02CB608D02CB806D02C862C982C9468
:10041000040E2B6E18D02CA60AD02CB408D02CB801
:1004200006D02C962C942C88040E2B6E0CD02CA865
:100430000AD02CB408D02CB606D02C842C962C983C
:10044000040E2B6E00D007D01E501F1003E0070EC5
:100450002B6E01D02B6A43D02D6A2E6A1C501D10C2
:100460001BE02CA407D02CB605D02CB803D0020E6C
:100470002B6E11D02CA607D02CB405D02CB803D0ED
:10048000030E2B6E08D02CA806D02CB404D02CB6AA
:1004900002D0010E2B6E01D02B6A21D02A6A2B6A62
:1004A0001ED02A50000AD8B433D72A50010AD8B433
:1004B00038D72A50020AD8B444D72A50030AD8B4ED
:1004C00050D72A50040AD8B45CD72A50050A8BE0CA
:1004D0002A50060A91E02A50070ABEE0DFD7120030
:1004E000818E0900F5CFE6FF0006FBE10106F9E188
:1004F00012001A0E0B6E5E0E0C6E6E0E0D6E0D2E31
:10050000FED70C2EFCD70B2EFAD7000090DE6DDE46
:100510001A0E0B6E5E0E0C6E6E0E0D6E0D2EFED74D
:100520000C2EFCD70B2EFAD70000A4DE1200A7EC8D
:1005300002F0DFDF2BC02AF0EADEFCD7FFD7000095
:10054000000000000000000000000000000010EEAD
:100550001AF0100E006E010E016E3E0EF66E050EC4
:10056000F76E000EF86E70EC02F01200FFFFFFFF56
:020000040030CA
:0C0000007229C3AF1F3FFF170300FF026F
:00000001FF
