:10000000B5EF01F0FFFFFFFF0F011AA106D00E01AF
:10001000C2A903D00F011A9118800F011AA306D0AC
:100020000E01C2A903D00F011A93168E0F011AA553
:1000300007D00E01C2A904D00F011A951884837845
:100040001100080E606E0F01216B2E6B116B266B79
:100050000F0E8A6E070E8B6E8C6A800E886E8F6A0A
:10006000906A916A100E8D6E856A866A876A100E94
:10007000836E0F0E206F0F0E1D6F070E256F070E7C
:10008000226F396B356B120018A009D08FA003D0F6
:100090001892168C02D01882169C189019D016AEA1
:1000A00009D08FA203D01898188A02D01888189AFD
:1000B000169E0ED018A409D08FA403D018961682CD
:1000C00002D018861692189403D01890169E189491
:1000D000120016840BD1839A87908792169018A2EB
:1000E00005D016A403D0090E176E00D025D1838A3F
:1000F00087908792168A1696169816AC04D016A486
:1001000002D0176A07D018A805D016A403D0040E91
:10011000176E00D011D1839A87808792169A16861F
:10012000169816AC04D016A402D0176A07D018A8E7
:1001300005D016A403D0050E176E00D0FDD0839A0B
:1001400087908782169A1696168816AC04D016A445
:1001500002D0176A07D018A805D016A403D0060E3F
:10016000176E00D0E9D019A404D0838A878019942F
:1001700003D0838A8782198419861992189C16AC39
:1001800004D016A402D0176A0FD018AA06D016A45D
:1001900004D0010E176E168007D018A605D016A43D
:1001A00003D0070E176E00D0C7D018AE04D08780DA
:1001B000838A189E03D087808782188E19961982A9
:1001C000189C16AC04D016A402D0176A0FD018AA37
:1001D00006D016A404D0020E176E168007D018A6FB
:1001E00005D016A403D0070E176E00D0A5D019A015
:1001F00004D08782838A199003D0878287801980F0
:1002000019961992188C16AC04D016A402D0176A4D
:100210000FD018AA06D016A404D0030E176E1680AD
:1002200007D018A605D016A403D0070E176E00D06D
:1002300083D0838A8780878216BC03D018BA01D006
:1002400004D016A402D0176A07D016A205D016A4AF
:1002500003D0080E176E00D06FD016A007D019A6D5
:1002600005D016A403D0050E176E12D016A007D025
:1002700019A205D016A403D0060E176E09D016A039
:1002800007D018AC05D016A403D0040E176E00D00A
:1002900053D018A21BD016AA07D016A405D0020E60
:1002A000176E1696169812D016A607D016A405D06B
:1002B000030E176E169A169809D016A807D016A422
:1002C00005D0010E176E169A169600D035D0169AE4
:1002D000169616881984188E198019961992189CEA
:1002E000839A87908792156A176A26D01550000A5C
:1002F000D8B4F1D61550010AD8B4F9D61550020A6F
:10030000D8B409D71550030AD8B419D71550040A20
:10031000D8B429D71550050AD8B447D71550060ABE
:10032000D8B465D71550070A84E01550080A95E03F
:100330001550090AAEE0CBD71200818E0900F5CF27
:10034000E6FF0006FBE10106F9E11200300E0E01A6
:10035000C26FCA6B070E0F011B6F070E1C6F1A6B63
:100360000E01CA9BC00EF26E1200F0DF6ADE8CDE58
:100370000F011AB1FCD71AB3FAD71AB5F8D717C0BC
:1003800015F0A7DEFCD7FFD7FFFFFFFFFFFFFFFF42
:020000040030CA
:0C0000007229C3AF7F3FFF170300FF020F
:00000001FF
