:10000000E7EF01F0FFFFFFFF00C015F00F011AA19D
:100010000AD00E01C2A907D00F011A91010E1F6E5E
:10002000000E206E4CD80F011AA30AD00E01C2A9EF
:1000300007D00F011A93010E216E000E226E3FD8D9
:100040000F011AA50AD00E01C2A907D00F011A95F7
:10005000010E1D6E000E1E6E32D815C000F011008C
:10006000080E606E0F01216B2E6B116B266B0F0E4D
:100070008A6E070E8B6E8C6A800E886E8F6A906A0D
:10008000916A100E8D6E856A866A876A100E836E7D
:10009000070E256F070E226F396B356B168A12001B
:1000A000300E0E01C26FCA6B070E0F011B6F070ED9
:1000B0001C6F1A6B0E01CA9BC00EF26E1200030E6B
:1000C0000B6E8A0E0C6E550E0D6E0D2EFED70C2E7D
:1000D000FCD70B2EFAD700000000000E201802E11A
:1000E0001F50010A0AE18FA003D0169C168402D08B
:1000F000168C16941F6A206A2BD0000E221802E17B
:100100002150010A0AE18FA203D01698168602D068
:1001100016881696216A226A1BD0000E1E1802E16C
:100120001D50010A03E08FA401D00CD08FA403D08E
:100130002390168E04D02380169E050E176E1D6A1E
:100140001E6A06D01F6A206A216A226A1D6A1E6A18
:100150001200010E186E000E196E0DD1839A879051
:1001600087921B6A1C6A16AC09D0000E191802E1AE
:100170001850010A03E1070E176E00D01BD1838AC5
:100180008790879216821690169A16A408D0000EB1
:10019000191802E11850010A02E1176A0BD016A8DB
:1001A00009D0000E191802E11850010A03E1040EEB
:1001B000176E00D0FFD0839A8780879216921680A0
:1001C000169A16A408D0000E191802E11850010A58
:1001D00002E1176A0BD016A809D0000E191802E127
:1001E0001850010A03E1040E176E00D0E3D0839A81
:1001F0008790878216921690168A16A408D0000E51
:10020000191802E11850010A02E1176A0BD016A86A
:1002100009D0000E191802E11850010A03E1040E7A
:10022000176E00D0C7D016A208D016B006D016BAE6
:1002300004D0838A8780879213D016A008D016B284
:1002400006D016BA04D0839A8780878209D016AA6E
:1002500007D016B205D016B003D0838A8790878264
:1002600016A609D0000E191802E11850010A03E180
:10027000070E176E0BD023A009D0000E191802E14B
:100280001850010A03E1050E176E00D093D0838A3F
:100290008780878216AE0DD0000E191802E1185023
:1002A000010A07E1010E1B6E000E1C6E060E176E92
:1002B00000D080D0000E1C1802E11B50010A0EE194
:1002C00016A20CD0000E191802E11850010A06E11E
:1002D0001680169A1692040E176E28D0000E1C185F
:1002E00002E11B50010A0EE116A00CD0000E1918F5
:1002F00002E11850010A06E116901692168A040EC1
:10030000176E14D0000E1C1802E11B50010A0EE1FA
:1003100016AA0CD0000E191802E11850010A06E1C5
:1003200016821690169A040E176E00D043D016A2AD
:1003300007D016B005D016BA03D0020E176E11D032
:1003400016A007D016B205D016BA03D0030E176E4A
:1003500008D016AA06D016B204D016B002D0010EEC
:10036000176E28D016921690168A839A87908792D5
:100370001A6A176A1FD01A50000AD8B4EFD61A505A
:10038000010AD8B4FCD61A50020AD8B414D71A50AD
:10039000030AD8B42CD71A50040AD8B444D71A5038
:1003A000050AD8B474D71A50060A84E01A50070A0E
:1003B000BEE0D8D71200818E0900F5CFE6FF000617
:1003C000FBE10106F9E112004BDE6ADE1200FCDF00
:1003D00017C01AF0BEDEFCD7FFD7FFFFFFFFFFFFFD
:020000040030CA
:0C0000007229C3AF1F3FFF170300FF026F
:00000001FF
