:1000000080EF01F0FFFFFFFF0F011AA110D00E01DA
:10001000C2A90DD00F011A91158C15AC08D08FA074
:1000200003D01592188602D015821896159C0F01E0
:100030001AA310D00E01C2A90DD00F011A93188275
:1000400018A208D08FA203D01894188A02D018845E
:10005000189A18920F011AA510D00E01C2A90DD03E
:100060000F011A95188018A008D08FA403D01898F3
:10007000158E02D01888159E1890110087921200D4
:1000800087901200839A12008780120087821200E4
:10009000838A1200300E0E01C26FCA6B070E0F0169
:1000A0001B6F070E1C6F1A6B0E01CA9BC00EF26EFF
:1000B0001200080E606E0F01216B2E6B116B266B08
:1000C0000F0E8A6E070E8B6E8C6A800E886E8F6A9A
:1000D000906A916A100E8D6E856A866A876A100E24
:1000E000836E070E256F070E226F396B356B12007A
:1000F000818E0900F5CFE6FF0006FBE10106F9E17C
:100100001200C8DFD6DF1200158ADBD0BBDFB8DFF4
:10011000B5DF159815A205D015AA03D0070E166EE7
:1001200000D0EDD0B5DFACDFA9DF158015961594B2
:1001300018A604D015AA02D0166A07D018A405D0B4
:1001400015AA03D0040E166E00D0D9D09BDF9CDF19
:1001500095DF15901586159418A604D015AA02D01F
:10016000166A07D018A405D015AA03D0040E166E7F
:1001700000D0C5D087DF84DF89DF15901596158400
:1001800018A604D015AA02D0166A07D018A405D064
:1001900015AA03D0040E166E00D0B1D015A008D059
:1001A00015B606D015B404D073DF6EDF67DF13D049
:1001B00015A608D015B006D015B404D063DF64DFEF
:1001C00065DF09D015A407D015B005D015B603D04A
:1001D0005FDF56DF5BDF18A604D015AA02D0166ACF
:1001E0000ED018AA05D015AA03D0070E166E07D098
:1001F00018A805D015AA03D0050E166E00D07FD022
:1002000047DF42DF43DF18B603D018BA01D004D06D
:1002100015AA02D0166A08D015AE06D015AA04D0C9
:100220001588060E166E00D06AD015A80AD015A043
:1002300008D015AA06D0158615941590040E166ED2
:1002400018D015A80AD015A608D015AA06D015965C
:1002500015901584040E166E0CD015A80AD015A49E
:1002600008D015AA06D0158015961594040E166EA2
:1002700000D045D015A21BD015A007D015AA05D0D7
:10028000020E166E1596159412D015A607D015AA53
:1002900005D0030E166E1590159409D015A407D03D
:1002A00015AA05D0010E166E1590159600D027D010
:1002B000159015961584839A87908792176A166A07
:1002C0001ED01750000AD8B421D71750010AD8B44D
:1002D00029D71750020AD8B439D71750030AD8B40F
:1002E00049D71750040AD8B459D71750050A88E0DF
:1002F0001750060A9AE01750070ABCE0D9D7120037
:1003000000DF83781AB1FED71AB3FCD71AB5FAD733
:1003100016C017F0F9DEFCD7FFD7FFFFFFFFFFFF86
:020000040030CA
:0C0000007229C3AF1F3FFF170300FF026F
:00000001FF
